:020000040800F2
:100000000C06002025010008A5010008A501000834
:10001000A5010008A5010008A501000800000000D6
:10002000000000000000000000000000A501000822
:10003000A501000800000000A5010008A5010008B6
:10004000A5010008A5010008A5010008A5010008F8
:10005000A5010008A5010008A5010008A5010008E8
:10006000A50100088D060008A5010008A5010008EB
:10007000A5010008A5010008A5010008A5010008C8
:10008000A5010008A5010008A50100080000000066
:10009000000000000000000000000000A5010008B2
:1000A000A5010008A5010008A5010008A501000898
:1000B000A5010008A5010008A5010008A501000888
:1000C000A5010008A5010008A5010008A501000878
:1000D000A5010008A5010008A5010008A501000868
:1000E000A5010008A5010008A50100080000000006
:1000F0000000000000000000000000000000000000
:1001000000000000000000000000000000000000EF
:100110000000000000000000A5010008A501000883
:100120005FF808F170B51A491A4CA14221D21A4859
:100130000B46024652F8046BCD4343F8046B651935
:10014000A342C5F3800514D23DB1156800F1080241
:100150001D6001F10803A3420BD2104650F8045B66
:10016000194641F8045B5568021D5D600B1DA342F2
:10017000F3D30A480A494FF000028842B8BF40F85A
:10018000042BFADB00F010F8BDE8704000F0E8B98D
:1001900000000020B0010020BC0F0008B0010020CA
:1001A00010020020FEE700BF384B394A18680021D2
:1001B00040F001001860586882B000EA02025A60FC
:1001C00018681A4620F0847C2CF480301860186877
:1001D00020F480201860586820F4FE0058604FF426
:1001E0001F009860D96201910091186840F4803135
:1001F000196003E00198B0F5A06F09D0116801F40F
:10020000003300930198411C0191009B002BF1D019
:100210001E4B1A6812F400330AD001210091009895
:10022000012809D01B484FF00061816002B070477F
:10023000009300980128F5D1144B5A6819465A606A
:10024000586858605A685A60586820F47C125A609E
:10025000586840F498125A60186840F080721A602A
:100260000B680A4A13F0007FFAD05368114623F056
:1002700003005060536843F0020050604A6802F087
:100280000C0CBCF1080FF9D1CCE700BF0010024004
:100290000000FFF800ED00E0CB7830B413F0100F51
:1002A00018BF8A7803F00F0418BF14430A8812F0AD
:1002B000FF0F29D002F001050168002D40F0DD801C
:1002C00002F00205002D40F0C28002F00405002D6E
:1002D00040F0C88002F00805002D40F08C8002F04C
:1002E0001005002D40F0928002F02005002D40F016
:1002F000988002F04005002D40F09E8002F08005BD
:10030000002D40F0C5800160FF2A20D902F48075DD
:100310004168002D26D102F40075002D2DD102F484
:100320008065002D34D102F40065002D3BD102F42C
:100330008055002D41D102F40055002D47D102F423
:100340008045002D4DD102F4004212B9416030BC0D
:100350007047282B64F31F7100F0B080482B08BF52
:100360000261F3E721F00F0C282B44EA0C0100F0A6
:10037000A380482BCFD10561CDE721F0F001282BD8
:1003800041EA041100F09680482BC8D10561C6E708
:1003900021F4706C282B4CEA042100F08980482B52
:1003A000C1D10561BFE721F47041282B41EA043136
:1003B0007CD0482BBBD10561B9E721F4702C282BE8
:1003C0004CEA044170D0482BB5D10561B3E721F464
:1003D0007001282B41EA045164D0482BAFD105614C
:1003E000ADE721F0706C282B4CEA046158D0482B03
:1003F000A9D10561A7E721F4704C282B4CEA043100
:1004000068D0482B7FF46BAF056168E721F4702159
:10041000282B41EA04415BD0482B7FF465AF05618E
:1004200062E721F4700C282B4CEA045156D0482B7B
:100430007FF45FAF05615CE721F07061282B41EA32
:10044000046149D0482B7FF459AF056156E721F08C
:10045000F00C282B4CEA041138D0482B7FF435AF30
:10046000056132E721F47061282B41EA04212BD089
:10047000482B7FF42FAF05612CE721F00F01282BCB
:1004800044EA01011CD0482B7FF41AAF056117E73D
:10049000282B64F31F7115D0482B08BF056132E784
:1004A000456150E745614AE7456144E745613EE7FC
:1004B000456138E7456132E745612CE7426145E730
:1004C0004561FDE645611EE7456103E74561FCE6E0
:1004D000456109E7456102E745610FE7456108E7C6
:1004E000836819420CBF00200120704701617047EA
:1004F0004161704710B500F0DBF84FF4803000F038
:10050000F9F800F07DF9154B01280446187000D069
:10051000FEE7102000F0AAF9002000F09DF900206D
:1005200000F028F9002000F039F9002000F02CF943
:100530004FF480304FF4802100F0F8F8204600F0AE
:1005400001F9392000F042F90028FAD0022000F029
:10055000FFF800F007F90828FBD110BDBC0100200E
:10056000F8B5FFF7C7FF434C41F21D00012100F031
:100570001FF90325E0221827102622802146A570A6
:10058000E7703D48FFF788FE21462680A570E6709B
:100590003948FFF781FE042702220123A27023803D
:1005A0002146E7703448FFF777FE4FF4407CA4F80B
:1005B00000C02146A570E6703048FFF76DFE0823A5
:1005C00021462380A570E7702B48FFF765FE2C4B72
:1005D00000221A804FF4827C0722002700244FF467
:1005E000007608251946DC81A3F802C09F80DF80D1
:1005F0001F815E819D811A82224800F09BFC224C63
:100600002048012100F0BEFC00F070FC1B484FF4B4
:100610008071FFF76BFF207858B900F0FBFA0121D9
:100620001548FFF75DFF01280DD000BF2078002896
:10063000F3D000F0A9F900F0EDFA01210E48FFF720
:100640004FFF0128F1D11820022100F045FB1820AE
:10065000002100F041FB1820142100F03DFB402058
:10066000032100F071FB05484FF40071FFF73EFFD6
:1006700000BFDBE7C001002000080140001001407E
:10068000C401002000300140B4010020074B10B528
:10069000196808204A1C1A6000F0CAF800B910BD99
:1006A0000820BDE8104000F0D1B800BFB001002024
:1006B0000E4B0F4A186840F001011960586800EAB3
:1006C00002015960186820F0847C2CF480321A6092
:1006D000196821F4802018605A684FF41F0022F432
:1006E000FE01002259609860DA62704700100240F3
:1006F0000000FFF80C4BB0F5803F196821F4803200
:100700001A60196821F480221A6007D0B0F5802F92
:1007100003D1186840F4A021196070471A6842F4A8
:1007200080301860704700BF00100240044B5A68C8
:1007300022F4741C40EA0C0040EA01025A6070473F
:1007400000100240014B1860704700BF6000424239
:10075000034B5A6822F0030140EA01025A607047D5
:1007600000100240024B586800F00C00704700BFB8
:1007700000100240034B5A6822F0F00140EA0102E7
:100780005A60704700100240034B5A6822F4E0613F
:1007900040EA01025A60704700100240034B5A6859
:1007A00022F4605141EAC0025A60704700100240D2
:1007B00029B9054B9A6922EA000199617047024BF9
:1007C0009A69104398617047001002404309012B59
:1007D0000BD0022B094B00F01F010CBF1B6A5B6A98
:1007E00033FA01F000F001007047044B00F01F01E4
:1007F0001B6833FA01F000F001007047001002405E
:1008000000B5002383B0019300E048B93120FFF721
:10081000DDFF019B5A1C01920199B1F5A06FF4D143
:100820003120FFF7D3FF003818BF012003B000BD0F
:1008300005490A684B69034004D010420CBF0020F0
:10084000012070471846704700040140014B586171
:10085000704700BF00040140034B1A6802F03801E2
:1008600040EA01021A60704700200240044B1968F8
:1008700021F010021A60196840EA01021A607047FC
:10088000002002402DE9F041394BD8789979421E79
:10089000D879212A4FD8DFE802F055585C4E4E4EE9
:1008A0004E4E4E4E4E4E4E4E4E4E4E4E4E4E4E4E68
:1008B0004E4E4E4E4E4E4E4E4E4E66112D4D95F8AE
:1008C0002D303835002B37D000020F18BFB2BB4295
:1008D00038BF1F46582000F06FFA10F0010FF9D012
:1008E0001FB37A1E6C1C96B2E943A61901EB060CE5
:1008F000002029780CF0010500F0EEF9B44214D084
:1009000035B114F8011B002000F0E6F9B4420CD018
:10091000254615F8011B002000F0DEF96178002063
:100920006C1C00F0D9F9B442F2D12820F9B2BDE82C
:10093000F04100F009BA00BF48202321BDE8F04192
:1009400000F0CAB90B4D2B78BCE70A4DAB7D1435CE
:10095000B8E79C78074BA20103F164059C1894F852
:100960006430AD18AEE7034D15F8263FAAE700BF87
:10097000E8010020000000204820232100F0ACB94D
:100980004820232100F0A8B9682010B500F014FA1F
:1009900010F0040F30D11A4C607800B910BDA020BF
:1009A00000F00AFA10F04003F8D17820237000F02C
:1009B00003FA40F00401C9B2782000F08DF96820F4
:1009C00000F0FAF910F0020FF9D0782000F0F4F9F5
:1009D00000F0FB01782000F07FF96820022100F090
:1009E0007BF96820042100F077F9682000F0E4F931
:1009F00010F0040FF9D0D1E7014B00221A7010BD9E
:100A0000B401002070B51C4B06461A78022A09D0A2
:100A100012B9997801291DD048202321BDE87040E2
:100A200000F05AB99C78002CF6D11B79832BF3D1B6
:100A3000482000F0C1F9012E054613D100F1100540
:100A40000E48EDB28670482045F04001BDE8704088
:100A500000F042B9094B460098205E70BDE8704036
:100A600000F0CEB9054A50201021947005F0EF0532
:100A700000F032F9E7E700BFE8010020B4010020F0
:100A800010B5174A1378812B22D0822B18D0802BD7
:100A900005D048202321BDE8104000F01DB9114BBE
:100AA00000205A78511CC9B200F016F90020014606
:100AB00000F012F928200221BDE8104000F044B9EE
:100AC0001079832807D04820232100F005F9E0E7BA
:100AD00000200146E8E7034900208978E4E700BFE9
:100AE000E8010020B401002010B50948094A8378C4
:100AF000D37043B1702000F05FF940F01001C9B22B
:100B0000702000F0E9F89820BDE8104000F078B9B6
:100B1000E8010020B401002010B5054B0020D97871
:100B200000F0DAF828200121BDE8104000F00CB9EF
:100B3000B4010020054B9A780AB91B791BB14820F3
:100B4000232100F0C9B8982000F05AB9E80100202C
:100B500010B5094B187928B148202321BDE8104071
:100B600000F0BAB8014600F0B7F828200121BDE82E
:100B7000104000F0E9B800BFE801002012484378B7
:100B80000B2B09D8DFE803F00C0E08110814170826
:100B9000191B1D06FFF7CEBF4820232100F09CB88B
:100BA000FFF76EBF0020FFF72DBF0120FFF72ABF20
:100BB000982000F025B9FFF765BEFFF7ADBFFFF73E
:100BC00093BFFFF7C5BF00BFE801002010B5104C70
:100BD00020200821224600F037F9237803F0600333
:100BE000202B10D0402B0AD01BB9BDE81040FFF7D6
:100BF000C5BF48202321BDE8104000F06DB8BDE816
:100C00001040FFF7BDBEBDE81040FFF7B5BE00BF06
:100C1000E801002010B5582000F0CEF8284C2071D3
:100C2000682000F0C9F82379607113F0200F1DD1FE
:100C3000E17869B910F0800F2ED110F0080F21D1A2
:100C400013F0100F03D11F480378591C017010BD19
:100C500010F0100FEED01C4B68201A7814210132CE
:100C60001A7000F039F80120207010BD174B582081
:100C70001A78202101321A7000F02EF8BDE81040D9
:100C8000FFF7A4BF124B68201A78082101321A70AE
:100C9000BDE8104000F020B80E4B68201A78802183
:100CA00001321A7000F018F8602020210023237010
:100CB00000F012F870208821BDE8104000F00CB858
:100CC000B4010020E4010020E7010020E50100203C
:100CD000E60100200D02002070B505460C461848BC
:100CE0001021FFF705FC174845F0020100F05AF902
:100CF0001448022100F05CF90028F9D011480121C4
:100D000000F056F90028F9D00E4800F04DF90D48D2
:100D1000214600F047F90B48022100F049F900286C
:100D2000F9D00848012100F043F90028F9D005481E
:100D300000F03AF902481021BDE87040FFF7D6BB39
:100D4000000801400030014070B505460C461848C7
:100D50001021FFF7CDFB174845F0030100F022F901
:100D60001448022100F024F90028F9D0114801218B
:100D700000F01EF90028F9D00E4800F015F90D48D2
:100D8000214600F00FF90B48022100F011F900286C
:100D9000F9D00848012100F00BF90028F9D00548E6
:100DA00000F002F902481021BDE87040FFF79EBB39
:100DB000000801400030014010B5102104460E48E3
:100DC000FFF796FB0D48214600F0ECF80B48022196
:100DD00000F0EEF80028F9D00848012100F0E8F80A
:100DE0000028F9D010210448FFF780FB034800F0E9
:100DF000DBF8C0B210BD00BF000801400030014068
:100E000010B5102104460E48FFF772FB0D48611C17
:100E100000F0C8F80B48022100F0CAF80028F9D009
:100E20000848012100F0C4F80028F9D01021044836
:100E3000FFF75CFB034800F0B7F8C0B210BD00BF7D
:100E4000000801400030014070B505460C461D48C1
:100E500010211646FFF74CFB1B48294600F0A2F86C
:100E60001948022100F0A4F80028F9D01648012101
:100E700000F09EF80028F9D0134800F095F8DCB196
:100E8000611EC8B23418354601340F48FF2100F006
:100E900089F80D48022100F08BF80028F9D00A48A3
:100EA000012100F085F80028F9D0074800F07CF80F
:100EB00005F8010BA542E8D102481021BDE87040B9
:100EC000FFF714BB000801400030014078202021CA
:100ED00008B5FFF701FF78200021FFF7FDFE68202D
:100EE000FFF76AFF10F0010FF9D008BD10B5104CE4
:100EF00010212046FFF7FCFA88201021FFF7ECFEB6
:100F0000FFF7E4FF78204821FFF7E6FE602020216C
:100F1000FFF7E2FE70208821FFF7DEFE012180202E
:100F2000FFF7DAFE20461021BDE81040FFF7DEBAD9
:100F300000080140B1F802C00A888B88F0B4CF885D
:100F40004CEA02050E8945EA03043C434B898F892C
:100F500044EA060C0588CE894CEA030242EA070CF3
:100F60004CEA060305F4415545EA03020280B0F855
:100F70001CC00A8A2CF4006319040B0C83830282C0
:100F8000F0BC704739B9B0F800C02CF04002110431
:100F90000B0C03807047028891B241F0400303803C
:100FA000704700BF81817047808980B2704700BF61
:0C0FB000038919420CBF0020012070478B
:100FBC0012011001000000406A0B4653341201026A
:100FCC000301000009022200010100E032090400C3
:100FDC00000103010200092110010001222B00076E
:100FEC0005830340000A000005010906A10105075D
:100FFC0019E029E715002501750895018102950175
:10100C00750881011900296515002565750895017C
:10101C008100C0000403090400000000000000006F
:10102C0000000000000000000000000000000000B4
:10103C0000000000000000000000000000000000A4
:10104C000000000000000000000000000000000094
:10105C00000000000C034D006100780069006D0079
:10106C000000000000000000000000000000000074
:10107C000000000000000000000000000000000064
:10108C000000000000000000000000000000000054
:10109C000000000018034D004100580033003400DC
:1010AC00320030004500200045006E0075006D00D8
:1010BC00200043006F006400650000000000000089
:1010CC000000000000000000000000000000000014
:1010DC0000000000140353002F004E0020003300CA
:1010EC003400320030004500000000000000000019
:1010FC0000000000000000000000000000000000E4
:10110C0000000000000000000000000000000000D3
:10111C000000000000002802001700000B0000086F
:10112C0000002C02001002000402001B0000200032
:10113C00002100001F00002702000800002C000006
:10114C000700001200000800001600002C02001816
:10115C0002001602000502001E00002848000000D4
:0400000508000000EF
:00000001FF
